:03000000020026D5
:0C002600787FE4F6D8FD75810B02006DB8
:07000300010A0002080000E1
:1000B2001201AF12017CE5087062E50914B4070071
:1000C200505A9000D275F003A4C58325F0C58373FE
:1000D2000200E70200EC0200F10200F60201000257
:1000E200010B02011B1201A2800D12019280081263
:1000F20001BB80031201C47FF412000E8014E50AD2
:10010200C394135002050A8009E50AD39401400200
:10011200150AE4F508F50980031201CD1201CD801C
:010122009547
:0301D200DFFE222B
:10000E00AE07AF061EEF600C7FF51201D27FF51220
:05001E0001D280EE227A
:0C01AF00438901D2AFD2A9D28CD2B92270
:0D01A200D295D294A2929290C293C2912263
:0F019200D295D294750A02A2929290D293D291F2
:0101A100223B
:0901BB00D295D294C291D2932294
:0901C400D295D294D291C293228B
:0501CD00C295C294225E
:03000B00020123CC
:09012300C0E0C0D075D000C00797
:10012C00758CFC758A18E50A14FFE50BD39F400605
:10013C00C292C2908004D292D290050BE50BB414FB
:04014C0003750B002C
:07015000D007D0D0D0E0324F
:10017C00438920758DFD758BFDE4F587759850D2FC
:06018C00AFD2ACD28E22BE
:0300230002015780
:10015700C0D075D000C007AF997508008F09C29845
:100167008509993099FDC299850A993099FDC299F7
:05017700D007D0D032DA
:100032000200B2E493A3F8E493A34003F68001F232
:1000420008DFF48029E493A3F85407240CC8C333CF
:10005200C4540F4420C8834004F456800146F6DF9E
:10006200E4800B0102040810204080900003E47E2B
:10007200019360BCA3FF543F30E509541FFEE49393
:10008200A360010ECF54C025E060A840B8E493A35A
:10009200FAE493A3F8E493A3C8C582C8CAC583CA85
:1000A200F0A3C8C582C8CAC583CADFE9DEE780BE3D
:01000A0000F5
:00000001FF
